S01400004D43555F415050315F4144432E7372656393
S113800000180020D580000043810000898D000005
S1138010000000000000000000000000000000005C
S11380200000000000000000000000004781000084
S11380300000000000000000498100004B810000A6
S11380404F810000578100005F81000067810000BC
S11380506F810000778100007F810000878100002C
S11380608F810000978100009F810000A78100009C
S1138070E98B0000B7810000BF810000D1830000BC
S1138080CF810000D7810000DF810000E78100007C
S1138090EF810000F7810000ED86000007820000F8
S11380A00F820000178200001F8200002782000058
S11380B02F820000378200003F82000047820000C8
S11380C0309D000080F8FF1F0400000084F8FF1FAB
S11380D07001000072B600F073FE0E4B07E01868E2
S11380E059681C000C349A6800F01AF823000A4AF4
S11380F09342F4D306E018681C000834596800F071
S113810018F82300054A9342F5D362B601F014FD32
S1138110FEE7C046C0800000CC800000D480000090
S113812010B5002302E010C810C104339342FAD3FF
S113813010BD002302E0002204C004338B42FAD3B2
S11381407047FEE7FEE7FEE7FEE7FEE7FEE710B551
S1138150FFF7FCFF10BD10B5FFF7F8FF10BD10B519
S1138160FFF7F4FF10BD10B5FFF7F0FF10BD10B519
S1138170FFF7ECFF10BD10B5FFF7E8FF10BD10B519
S1138180FFF7E4FF10BD10B5FFF7E0FF10BD10B519
S1138190FFF7DCFF10BD10B5FFF7D8FF10BD10B519
S11381A0FFF7D4FF10BD10B5FFF7D0FF10BD10B519
S11381B0FFF7CCFF10BD10B5FFF7C8FF10BD10B519
S11381C0FFF7C4FF10BD10B5FFF7C0FF10BD10B519
S11381D0FFF7BCFF10BD10B5FFF7B8FF10BD10B519
S11381E0FFF7B4FF10BD10B5FFF7B0FF10BD10B519
S11381F0FFF7ACFF10BD10B5FFF7A8FF10BD10B519
S1138200FFF7A4FF10BD10B5FFF7A0FF10BD10B518
S1138210FFF79CFF10BD10B5FFF798FF10BD10B518
S1138220FFF794FF10BD10B5FFF790FF10BD10B518
S1138230FFF78CFF10BD10B5FFF788FF10BD10B518
S1138240FFF784FF10BD10B5FFF780FF10BDFFFFDF
S113825080B582B000AF0200FB1D1A70FB1D1B78B5
S11382607F2B09D8FB1D1B781A001F231A40044BCF
S1138270012191400A001A60C046BD4602B080BD8B
S113828000E100E080B500AF054B1A68044B4021C3
S11382900A431A600F20FFF7DBFFC046BD4680BDCE
S11382A000B0034080B500AF3B4AEC23D3583A49B1
S11382B03A4A1340EC228B50394A81239B00D3580D
S11382C03749384A1A4081239B00CA50344A8123D3
S11382D09B00D35832498022D2001A4381239B0049
S11382E0CA502D4AEC23D3582B492F4A1340EC2271
S11382F08B50294AEC23D3582749802292041343F4
S1138300EC228B50244AEC23D35823498022D205F3
S11383101343EC228B5000F081FD244B1A6C234B49
S113832003218A431A64214B1A6C204B60218A432F
S11383301A641E4B1A6C1D4B60210A431A641B4BB2
S11383401A6C1A4B0C218A431A64184B1A6C174B7B
S113835008210A431A64154BFF225A64134A9023D6
S1138360D35812490322934390228B500F4A9423EB
S1138370D3580E490822934394228B500B4A9023DE
S1138380D3580A494022934390228B50FFF77AFF37
S1138390C046BD4680BDC04600500640FFFFFFBF3B
S11383A000400640FFF8FFFFFFFFFFF800B0034066
S11383B080B500AF054B1B681F2293431A00034B83
S11383C01A210A431A60C046BD4680BD00B003406E
S11383D080B500AF084B9B6C9AB2084B1A80084BCF
S11383E001221A70054B1B889BB2180001F088FB10
S11383F0C046BD4680BDC04600B00340ECF9FF1F37
S1138400EEF9FF1F80B584B000AF0200BB1D1A80D7
S1138410BB1D1B88180001F024FC2A4A2A4B00F0DB
S1138420C3FF02000B001000190001F0CBFA031C7B
S1138430BB60B86801F02CFB244A254B01F0F4FA28
S1138440031E1DD0B86801F023FB204A204B01F025
S113845027F902000B00100019001E4A1E4B01F000
S11384606DF802000B0000201C4901F019F902000C
S11384700B001000190001F0A5FA031CFB601CE0BE
S1138480B86801F005FB114A114B01F009F902002B
S11384900B0010001900124A124B01F04FF80200B1
S11384A00B0000200D4901F0FBF802000B00100046
S11384B0190001F087FA031CFB60FB68181CBD4619
S11384C004B080BD9A9999999999693F00917EFB6E
S11384D03A70E63F586FD40AD3F75A3F0000394048
S11384E0FDBB3E73D6A75C3F90B583B000AF786008
S11384F07B68064A13CA13C313CA13C313CA13C32C
S113850003CA03C37868BD4603B090BD84F8FF1F57
S113851090B58FB000AF224C3B00180000F0F6F885
S11385203A00230013CA13C313CA13C313CA13C3D1
S113853003CA03C33723FB1800221A7026E037212D
S11385407B181A78164B9200D3583B633B6B002B75
S113855006D17B181A78134B92000021D1500FE0FA
S11385603B6B9BB21800FFF74DFF021C3723FB182F
S11385701C78101C01F081FB01000A4BA200D150B1
S113858037217B181A787B1801321A703723FB18AD
S11385901B78092BD3D9C046C046BD460FB090BD49
S11385A0B0F8FF1F84F8FF1F80B582B000AF02004F
S11385B0FB1D1A70FB1D1B787F2B09D8FB1D1B7834
S11385C01A001F231A40044B012191400A001A602B
S11385D0C046BD4602B080BD00E100E080B500AFFA
S11385E0314ADC23D3583049304A1340DC228B50C3
S11385F02F4A81239B00D3582D492E4A1A408123A8
S11386009B00CA502A4A81239B00D35828498022C0
S1138610D2001A4381239B00CA50234ADC23D35837
S11386202149254A1340DC228B501F4ADC23D358AE
S11386301D49802292041343DC228B501A4ADC2306
S1138640D35819498022D2051343DC228B5000F001
S1138650E5FB1A4B9A68194B02210A439A60174B9F
S11386609A68164B02218A439A60144B9A68134BFA
S11386700D210A439A60114B9A6A104B0C218A43CC
S11386809A620E4A0D4B926A9A620C4B0C4A1A6219
S11386900A4B1A69094B01210A431A611620FFF794
S11386A083FFC046BD4680BD00500640FFFFFFBFAC
S11386B000400640FFF8FFFFFFFFFFF80070034093
S11386C040420F0080B500AF024B01225A61C04600
S11386D0BD4680BD0070034080B500AF024B01224F
S11386E09A61C046BD4680BD0070034080B500AFAE
S11386F0054BDA68044B01210A43DA60FFF758FEA0
S1138700C046BD4680BDC0460070034090B583B0EE
S113871000AF78607B68064A13CA13C313CA13C335
S113872013CA13C303CA03C37868BD4603B090BD1C
S1138730DCF8FF1F80B500AF054B2922FF219954B7
S1138740034B282200219954C046BD4680BDC04633
S1138750DCF8FF1F80B584B000AF78600F23FB18EE
S113876000221A701D4B29229B5601330A2118003E
S113877001F00BFA0B001A000E217B181A70174B2C
S113878029229B56013307D0144B28229B567A1872
S1138790127852B29A4215D00E23FB1800229A5630
S11387A00E4B92007968D1500C4B29229B56013311
S11387B00A21180001F0E9F90B0059B2074B2922EC
S11387C0995403E00F23FB1801221A700F23FB189E
S11387D01B781800BD4604B080BDC046DCF8FF1FFE
S11387E080B582B000AFFB1D00221A7000F036F88D
S11387F0031E03D0FB1D02221A7026E0164B28220A
S11388009B560A21180001F0C0F90B005AB2124B12
S113881029215B569A420DD00F4B28229B560133D7
S11388200A21180001F0B1F90B0059B20A4B2822B1
S113883099540AE0084B2922FF219954064B282217
S113884000219954FB1D02221A70FB1D1B7818008D
S1138850BD4602B080BDC046DCF8FF1F80B500AF46
S1138860084B29229B56013306D1064B28229B56DE
S1138870002B01D1012300E00023DBB21800BD4628
S113888080BDC046DCF8FF1F80B500AF094B29222C
S11388909B5601330A21180001F077F90B001900E7
S11388A0044B28229B56CB1A5A425341DBB2180080
S11388B0BD4680BDDCF8FF1F80B582B000AF02006A
S11388C0FB1D1A70FB1D1B787F2B09D8FB1D1B7821
S11388D01A001F231A40044B012191400A001A6018
S11388E0C046BD4602B080BD00E100E080B500AFE7
S11388F0454AD4235B00D3584349444A1A40D423FD
S11389005B00CA50424A81239B00D3584049414AE4
S11389101A4081239B00CA503D4A81239B00D358AF
S11389203B49C02292001A4381239B00CA50384A13
S113893082239B00D358364901221A4382239B0089
S1138940CA50314AD4235B00D3582F49324A1A40C3
S1138950D4235B00CA502C4AD4235B00D3582A4941
S1138960802292041A43D4235B00CA50264A9423DB
S11389705B00D35824498022D2051A4394235B0018
S1138980CA50214AD4235B00D3581F498022D20500
S11389901A43D4235B00CA5000F040FA1F4B5A68B4
S11389A01E4B1C490A405A601C4B5A681B4B8021C1
S11389B089000A435A60194B5A68184B02210A432A
S11389C05A60164B5A68154B01210A435A60134BDF
S11389D01A68124B0F490A401A60104B1A680F4B61
S11389E0802189000A431A600C4B1A680B4B022140
S11389F00A431A60094B1A68084B01210A431A609A
S1138A00C046BD4680BDC04600500640FFFFFFBFC4
S1138A1000400640FFF8FFFFFFFFFFF800A00440FE
S1138A2080B500AFFFF762FF254B9A69244B2549B7
S1138A300A409A61224B9A69214B23490A409A6160
S1138A401F4B1B695B0B5A031D4B34210A431A61EC
S1138A501B4B1A691A4B802189020A431A61184B6D
S1138A601B691A4A1A40164BC02189040A431A6129
S1138A70134B1A69124B16490A401A61104B9A6932
S1138A800F4B14490A409A610D4B9A690C4B102103
S1138A908A439A610A4B9A69094B02218A439A6173
S1138AA0074B1A69064B0C490A401A61044B5A6970
S1138AB0034B07490A405A61C046BD4680BDC046C3
S1138AC000A00640FFFFFBFFFFFFF7FFFFFFFFE0F3
S1138AD0FFFFFFDFFFF7FFFFFFDFFFFF80B582B07F
S1138AE000AF0200FB1D1A70114B9A69104B8021D4
S1138AF009030A439A61C0460D4B5A6980231B043B
S1138B001340F9D00A4BFA1D1278DA61C046084BBB
S1138B105A698023DB031340F9D0054B9A69044B4F
S1138B2004490A409A61C046BD4602B080BDC046B1
S1138B3000A00640FFFFF7FF80B584B000AF786067
S1138B400A00FB1C1A701C4B9A691B4B80210903F9
S1138B500A439A610F23FB1800221A7013E0C046DF
S1138B60154B5A6980231B041340F9D00F217B183D
S1138B701B787A68D3181A780F4BDA617B181A7845
S1138B807B1801321A700F23FA18FB1C12781B7819
S1138B909A42E4D3C046084B5A698023DB0313404E
S1138BA0F9D0054B9A69044B04490A409A61C046BE
S1138BB0BD4604B080BDC04600A00640FFFFF7FFDD
S1138BC080B500AF024B1B78DBB21800BD4680BDF8
S1138BD0F1F9FF1F80B500AF024B00221A70C046A6
S1138BE0BD4680BDF1F9FF1F80B500AF0F4B5A6938
S1138BF080239B03134015D00C4BDB69DAB20C4B7A
S1138C001A700C4B01221A70094B1B78DBB2552BDE
S1138C1005D1094B01221A70FFF75EFD02E0064BF5
S1138C2000221A70C046BD4680BDC04600A0064062
S1138C30EFF9FF1FF1F9FF1FF0F9FF1F90B591B095
S1138C4000AF424B1B78DBB2012B00D07AE0FFF778
S1138C505FFC3F4C3B001800FFF746FC3A00230042
S1138C6013CA13C313CA13C313CA13C303CA03C354
S1138C703F23FB1800221A7057E03F23FB181A7891
S1138C80334B9200D358BB63BB6B6421180000F0D4
S1138C907FFF03001A0037217B181A700A00BB18E3
S1138CA01B78002B06D0BB181B783033DBB21800BE
S1138CB0FFF714FFBB6B6421180000F069FF0B0081
S1138CC0BB63BB6B0A21180000F062FF03001A00AB
S1138CD036217B181A700A00BB181B78002B06D0AB
S1138CE0BB181B783033DBB21800FFF7F7FEBB6B01
S1138CF00A21180000F04CFF0B00BB63BB6B0A2178
S1138D00180000F045FF0B00DBB23033DBB2180073
S1138D10FFF7E4FE0F4B02211800FFF70DFF3F2180
S1138D207B181A787B1801321A703F23FB181B78C2
S1138D30092BA2D90A20FFF7D1FEFFF7C3FC034B8E
S1138D4000221A70C046BD4611B090BDF0F9FF1F55
S1138D5008F9FF1F249D000080B500AF094B9A69F4
S1138D60084B802189030A439A610C20FFF7A4FD74
S1138D70044B9A69034B8021C9020A439A61C04695
S1138D80BD4680BD00A0064004207146084202D0C2
S1138D90EFF3098001E0EFF3088081690A88074B4B
S1138DA09A4200D0FEE7023181610168012901D0B5
S1138DB0002100E0202101607047C046ABBE0000E6
S1138DC080B500AF104B1A6880239B01134003D079
S1138DD00D4B0E4A5A6005E00B4B0D4A5A600A4B84
S1138DE00C4A5A60084B0C4A9A60074B1B68A02235
S1138DF093431A00044B20210A431A6000F097FEA3
S1138E00C046BD4680BDC0460020054020C528D9C7
S1138E1020C5000028D90000FFFF000080B582B003
S1138E2000AF2D4B1B691B0C9BB20F2213409AB24F
S1138E30BB1C01321A80284B1B691B0E0F221340E6
S1138E40052B2BD037D8032B14D034D8012B02D0C8
S1138E50022B03D02FE0214B7B602FE01E4A82239C
S1138E609B00D3580122134001D01C4B00E01C4B43
S1138E707B6023E0184AC2239B00D358032213408B
S1138E8019000A005201521A93019B1ADB005B1865
S1138E901B02144A944663447B600FE00E4AA123EC
S1138EA0DB00D358032213400F4A53430D4A944620
S1138EB063447B6002E000237B60C046BB1C1B88CC
S1138EC01900786800F064FE03001A00074B1A606A
S1138ED0C046BD4602B080BD0040064000127A0084
S1138EE080841E00006CDC0200366E0180F8FF1FD7
S1138EF070B5184C18492200002000F05DF880235A
S1138F0080225B0000212000D20000F02FF8134CD7
S1138F10134D22002900012000F04EF88023802206
S1138F205B0000212000D20000F020F80D4B1B68EC
S1138F30022B0DDD0C4C29002200022000F03CF82D
S1138F4080238022002120005B00D20000F00EF874
S1138F5070BDC04638F9FF1F2C9D000074F9FF1F37
S1138F602E9D0000289D0000B0F9FF1FF0B5C568D4
S1138F7004000120AE070CD080208000824213D070
S1138F808020C000824205D08020400082420BD065
S1138F90FF38F0BD21000123243115430020216155
S1138FA02160E361E560F4E7024F5E1E0120BE42EA
S1138FB0F3D9EEE7FEFFFF00F7B50D0001901000B6
S1138FC0140000F033F82B78722B1CD0772B1DD0B3
S1138FD0612B26D1144A593B0220691C032784467D
S1138FE00426012508782B2813D0622816D0E260C5
S1138FF0019A62611B0704D502220021200000F0BF
S113900063F82000FEBD00230122E5E704230222C9
S1139010E2E760463A4303430131E3E732432B433B
S1139020FAE70024EDE7C04602800000F0B5C56809
S113903004004769066989B0AB0720D02B0716D412
S113904000F022F8380000F059FE2B0502D530005C
S113905000F085FD0B4BAD0DAD059D4207D12022DF
S11390606846216A00F059FE684600F06BFD3C2218
S11390700021200000F06FFD002009B0F0BD0120A8
S11390804042FAE7000080ADF8B5002812D000F0A5
S1139090E5F805002800F8BD38006043084BC01807
S11390A000F0DCF8002801D001256D420134A6420D
S11390B0F2DCEFE7034B040005003C271E68F6E7EB
S11390C038F9FF1F289D0000F7B54369C66801936E
S11390D0364B04000D0000921E420BD0019800F0A4
S11390E013FE071E06D1009B012B06D0022B2DD0A8
S11390F0002B06D002273800FEBD200000F05AF8ED
S11391002D18002DF6DBB30404D52368E26A9A42D5
S113911000D2E362A369AB420EDCE16A22688A42B0
S113912000D20A002169D0180091401AA84203DB3A
S1139130206B1918A94228DC20231E430023A562B2
S1139140A36063601A4B1E40E660D4E7019800F008
S1139150D8FDE268002804DA802313430127E36082
S1139160C9E7E16A2368994200D90B00A1695B1839
S113917021695B1A920603D5A26A934200DA1300AE
S1139180834200DA0300ED18BBE7EB1AB50701D5FB
S1139190181AA060F00703D50099521A9A1A62604F
S11391A0009AD118202321609E43CBE703001000CE
S11391B0BFCFF7FFC16802008B0705D12122012030
S11391C00E4B40421A60704720230B4009030AD516
S11391D0002B02D0806A0138F5E793690068C01853
S11391E01369C01AF7E7002B01D0806AEBE7036824
S11391F0816900695B18181AE5E7C04634F9FF1F56
S11392000300032110B51A000B4219D1114C136845
S1139210114959189943214219D0DCB2511C002C30
S11392200BD0FF242402911C234206D0FF21090401
S11392300B40591E8B41D318D91C0130081A05E084
S113924001335C1E2478002CDDD1101A10BD0432C9
S1139250DDE7C04680808080FFFEFEFEC36870B5F7
S113926003221E0004001640134211D09B0611D5A0
S1139270856A00F079F8E368094A20001340E36046
S113928000F010F80022060029002000FFF71CFF60
S1139290300070BD83690568ED180369ED1AEAE7CB
S11392A0FFCFFFFF70B50400134AE36805691A4055
S11392B00168C06AE26082221A40022A02D00120B8
S11392C0404270BDDB030CD5814200D201008D42C7
S11392D009D10023094AA360E368E56213402560CD
S11392E0E3600020EDE722002800491B00F008F8A5
S11392F00028EED0E3E7C046FFFFF7FFFFFFFEFFC5
S1139300F7B5D5680F00140056690190EB0205D536
S1139310102330001D4300F0F4FCA061104B1D42EB
S11393200FD03000A16900F0F5FC002806DA802394
S11393300120E26840421343E3600FE0094B1D4003
S1139340E5603A003000019900F0EAFC4300A269AC
S11393505B08FB1AD318A3610028E8D1FEBDC04600
S113936010000200EFFFFDFF2022C36810B59343F5
S1139370C3608269836A04009A420CD0FFF792FFAB
S1139380E268074B1A4010231343E360A36AA36106
S11393902369E3622360E368024A1340E36010BD7B
S11393A0EFCFFFFFBFBFFFFFF0B51D008BB00290F2
S11393B00391039B14005A002B000399520D4B4058
S11393C0DB0FDB070693002A07D053498A4204D0F7
S11393D06B005B0D01D08B4211D1039B4F495B00A5
S11393E08B4200D886E04E4A934205D16B009B180D
S11393F04C4A934200D889E000204B496FE0D318CF
S11394000793039B620D1F0380233F0B5B031F43E2
S1139410EB021343802212061A430023380019007A
S1139420089200F03FFC0023E2020490059138000A
S11394301900150000F036FC0023009101930099F7
S1139440019A049B059C5B185441002704930594DE
S1139450029B06001A0028003B00390000F022FCA1
S11394600C003B003900029A0990089800F01AFC9D
S11394702200049C059D3B008018594180197941C4
S11394800A00802112196B41099C4903A70807436C
S1139490264C079804198B420CD2254904008C46AB
S11394A01000190080185941FD0F05432A000B00D4
S11394B064447F000021F80F801859418022030082
S11394C01206974203D1012302009A431300194A5A
S11394D0944206D81800069A24050A43A1180BB032
S11394E0F0BD002C03DB069A134B1A4306920020AE
S11394F00699F4E76A008A42F9D909498A4200D0F8
S11395007AE780229203934200D275E70A4B069AC7
S113951000201A431100E2E7FF070000FFFFDFFF0E
S11395200000E0FF0000C0FF0000F87F01FCFFFF27
S113953000FCFFFFFD0700000000F07FF0B587B0DE
S11395400090019102920393019B019A5F00039B97
S11395507F0D53400593002F08D04A4DAF4205D0EC
S1139560039B5C00640D01D0AC4207D1019B464EC5
S11395705D00B54265D9002044494CE0019B3F1B86
S1139580D902009B029A5C0D80231B069C46009B1B
S11395902143DC0263460B43510D62461D00039BCD
S11395A0DB020B431343029AD202AB4202D834D1FA
S11395B0A24232D93649012650087F18D9070843F8
S11395C035225908B44600235B00A94206D801D1CC
S11395D0A04203D86646241A8D41334324196D41B1
S11395E0212A24D0013A002AEED1A94208D801D177
S11395F0A04205D801335A425A4104998A18049268
S1139600059A2449D20FD2078F4213D818003F0578
S1139610BF18049AB91807B0F0BDE9078C4666462E
S11396206008690806430D0034001B49C3E7202283
S11396300493C9E7002F01DB184B1A4300201100E3
S1139640E9E7039B5C00B44200D994E7019A134311
S113965080225B009203934200D28CE7059B00209A
S1139660DB0FDB0795420BD3944203D20B4A002055
S11396701A43E4E7B442F9D10020A54200D17BE7C4
S11396801900C8E7FF0700000000E0FF0000F87FB2
S1139690FD030000FD070000FE0300000000F07F52
S11396A0F7B514001D001A008C46070026004B4035
S11396B007D580273F062200EB1900F0DBF803B042
S11396C0F0BD8D4203D884420BD38D4209D1802250
S11396D012069A180B0053409C463B0037001E00AC
S11396E06A406346110D1B0D0191581A5D4C5E4989
S11396F01940A14206D163461B0300D1ADE000200E
S11397005A49DCE7884204D1002832D06146380047
S1139710D5E78025614612036D030C03110B2A0063
S1139720240B224329431F2857D80C00C440121B82
S11397303400C44001982030C01A81400D0031002B
S1139740254381407D1BAF4216D2013A002901D046
S11397504942013DC020400302425BD15000EA0F60
S113976002436800CD0F110005432943023B002941
S113977010D100200021A2E70029EBD0013D681C94
S1139780444260414942121AE4E7290E12020A4394
S11397902D02083B510BF8D0510C04D1290F1201B2
S11397A00A432D01043BD10C04D1A90F92000A43B2
S11397B0AD00023B110D04D1E90F52000A436D00C4
S11397C0013B6046D90AC40FA14203D11B05991875
S11397D0280074E70020E10771E7352830D80D0030
S11397E020242038C540241AA14034007D1BAF42F8
S11397F0BF41C4407F42D21B2143360608D0FF201C
S11398000143013D681C444260414942121A01E08F
S11398100029F6D1D00209D4013B5C050DD0E80F34
S1139820520002436D00C80F05434900104C144018
S1139830002907DB1B051919CAE7200019053EE7B3
S11398403D00F7E701356A426A41A41880221206F6
S11398509142EFD101229543ECE7002800D055E76F
S11398604DE7C046FF070000FFF7FFFF0000F87F49
S1139870FFFFEFFFF0B51F0016003D0085B00C00A0
S113988003003A000291039001964D4007D58024CD
S1139890240632003B19FFF703FF05B0F0BD8F42E9
S11398A004D93C000399029A019B01914149424D1C
S11398B0200D170DC61B0140A94204D1220306D076
S11398C000203E49E9E78E4204D1002E6DD02100EC
S11398D01800E2E78025210312036D03090B120B24
S11398E029432A431F2E1ED81500F5402037AC46C5
S11398F0019D3F1AF540BA402A43019D9B18BD4083
S113990061442E009A422AD901315D1C8A022CD46A
S11399100138002E0ADA013380221206964205D15C
S11399200122934302E0352E05D90138000545187C
S113993029001800B1E71700203EF740DB19BB42AD
S1139940BF41019D7F42C9192027F540BF1BBA4082
S11399502E001643019A150601D0FF2216438A02EF
S11399601BD55D1C6B426B41C918002E01D102232B
S11399709D43240D4B082405E418114B62009A42C0
S113998007D86D08C907294323000A0010001900ED
S113999083E7013000220305F8E70138002EC5DA19
S11399A001335A425A418918B6E7E40F3000E107FF
S11399B073E7C046FFF7FFFFFF0700000000F87FD2
S11399C0FFFFDFFF73B5FE2600900191019B134951
S11399D05C00DA0F63085D18D2073605B54212D26F
S11399E00099CC00C82109065B18D900009BE00F40
S11399F05B0F0B43C01880231B069C4201D101233B
S1139A009843104376BD101C002DFBDB044B9C4295
S1139A1002D8FF20C005F4E70248F3E70000F0C7CE
S1139A200000E0FF0000C07FF0B585B00090019118
S1139A301D000199009B140003930B000020134F99
S1139A404E002B430DD4BE4209D80130A94206D89A
S1139A500020A94203D12200039B9342404105B058
S1139A60F0BDBE42FBD86B00BB42F8D80130A9421E
S1139A70F5D303D100202300039AEEE7009A1343A1
S1139A802343334358425841E9E7C0460000E0FF0E
S1139A9030B5C110FF240D002405254021420AD011
S1139AA0E023DB0542070B43A54209D0C82410007C
S1139AB02406191930BDC90FCB0700201900F9E796
S1139AC019030A43F9D0014BF7E7C0460000F87FB9
S1139AD080B500AFFEF782FDFEF7E4FBFEF7A0FFC2
S1139AE0FEF728FEFEF7EEFDFFF736F9FFF768F8FC
S1139AF00300012BFAD1FFF7A1F8FFF76BF8F5E7A4
S1139B0080B582B000AF7860FEF7BEFE031E06D0BB
S1139B10FEF766FE7B681800FEF71CFE03E07B6818
S1139B201800FEF717FEC046BD4602B080BD80B5E2
S1139B3000AFC046BD4680BD10B5FFF7D9F9FFF7A9
S1139B40C7FF10BD10B50400FFF75AFB0100200049
S1139B5000F0DDF810BD10B500F0BBF810BD10B575
S1139B60002811D080210C38490501608268002A40
S1139B700AD013688B4207D14368546803331B1916
S1139B80436093688360F1E710BD03000B4321D465
S1139B90002931D00122D207030901E00901120989
S1139BA09942FBD9430801E0490052089942FBD984
S1139BB000E04908401A07D35241FAD3014610463F
S1139BC0704749084018F7D29218FAD34018014652
S1139BD010467047CB0F00D04942021000D54042D6
S1139BE0534008B5FFF7D4FF0CBC521000D34042D9
S1139BF0002A00D549421847F446002000F001F835
S1139C006047704710B5002828D0030C12D1000417
S1139C10030E13D10002030F14D10001830F15D1D9
S1139C208000002816DB4000C412631842051000AF
S1139C30190010BD80235B04C918E9E780231B04C5
S1139C40C918E8E78023DB03C918E7E780239B03EF
S1139C50C918E6E780235B03C918E5E70020002163
S1139C60E7E7C30F10B5D907002B00D0404280238B
S1139C70DB05C918FFF7C6FF10BD9E22C10D10B544
S1139C80031C0402521A04D4802000062043D0404E
S1139C9010BDFE2903D9420200208242F8D1D80F18
S1139CA00138F5E710B543435143C918040C130CAC
S1139CB05C43091992B2040C544380B243435043A9
S1139CC02204240C801861411A041B0C8018594189
S1139CD010BD8446043A09D3830707D109060B0A49
S1139CE019430B0C1943043A02C0FCD2043203D0CA
S1139CF001700130013AFBD16046704701204042B7
S1139D0070470120404270470120404270470120C3
S1139D104042704701204042704701204042704752
S1139D2010007047202000FF03000000720077003D
S1079D30006CDC02E1
S90380D5A7
